:020000041000EA
:1000000000B5324B212058609868022188439860DF
:10001000D860186158612E4B002199600221596106
:100020000121F02299502B49196001219960352056
:1000300000F044F80222904214D00621196600F024
:1000400034F8196E01211966002018661A6600F04E
:100050002CF8196E196E196E052000F02FF8012189
:100060000842F9D1002199601B49196000215960AB
:100070001A491B48016001219960EB211966A021F2
:10008000196600F012F800219960164914480160C1
:100090000121996001BC002800D000471248134993
:1000A000086003C880F30888084703B5996A0420EC
:1000B0000142FBD001200142F8D103BD02B5186610
:1000C0001866FFF7F2FF186E186E02BD00000240BE
:1000D000000000180000070000035F00212200005C
:1000E000F4000018222000A00001001008ED00E03C
:1000F00000000000000000000000000074B24E7A12
:1001000000200420F7010010C3010010C5010010F9
:10011000C1010010C1010010C1010010C101001097
:10012000C1010010C1010010C1010010C701001081
:10013000C1010010C1010010C9010010CB01001065
:10014000CD010010CD010010CD010010CD01001037
:10015000CD010010CD010010CD010010CD01001027
:10016000CD010010CD010010CD010010CD01001017
:10017000CD010010CD010010CD010010CD01001007
:10018000CD010010CD010010CD010010CD010010F7
:10019000CD010010CD010010CD010010CD010010E7
:1001A000CD010010CD010010CD010010CD010010D7
:1001B000CD010010CD010010CD010010CD010010C7
:1001C00000BE00BE00BE00BE00BE00BE00F04BF888
:1001D000103800BEF2EB8871ECD700100CD800107C
:1001E0003402001090A31AE700202149086006C8D5
:1001F00081F3088810471F48006800282FD10DA4FC
:100200000ECC002902D000F012F8F9E71A491B4A77
:10021000002000E001C19142FCD1194988471949E9
:1002200088471949884700BEFDE701C901C29A42C3
:10023000FBD370470CD80010C0000020401C0020E9
:100240008CF3001000000420000004208CF3001048
:1002500000100420001004200000000070470B482C
:1002600004F0D8FB0047EFF30580C0B270470000F0
:1002700008ED00E0000000D0401C0020142A0020FF
:100280001533001079030010D132001057560000CA
:1002900006005250ABB360537CCC001006005250A5
:1002A000861C03028CCC0010060052505422A29DE2
:1002B000A0CC001005005250DE65F4688CF30010ED
:1002C000F8B5C04606480749091A8B10C90FC91866
:1002D00010B5491003D0044B002B00D0984710BD37
:1002E000401C0020401C002000000000054B10B501
:1002F000002B03D00449054800E000BFFFF7E2FFF0
:1003000010BDC04600000000A027002090AD0010E6
:1003100010B5124B1A688023DB015340E022D20152
:1003200013400F4A13600F4B04221A600B4B1B68DB
:10033000DB05FBD5094B586880B205F037FE0A494A
:1003400005F02BFE094905F008FE094905F00FFEEE
:10035000011C084805F001FE10BDC04600C0044065
:1003600000D0044000E004403333533A6ABC343FC9
:100370002D93E13A0000D841F0B5DE4657464E468F
:100380004546E0B5EE4CA54404AFFF2308269B1973
:100390000822BA189C18240A240206F0A3F80520A3
:1003A00003F04EF905F002FEE64D05F059FE02900D
:1003B000052301930F330093013B2A00E249E348F0
:1003C00080190825AC46BC44604409F08FF9E04D23
:1003D000E049280009F052F903211B2001F026FA18
:1003E00003211A2001F022FA002201211B2001F032
:1003F00035FA002201211A2001F030FAFA2002F029
:1004000079FB00233C2229008C25ED00A8193860D7
:1004100008208446BC443868604409F097FD0021F8
:10042000AB190822BA18981809F0CAFDAB190822AE
:10043000BA18981809F0F8FC08F0EEFFC64B022233
:100440001A608B23DB009B190632BA189A18C34B2B
:1004500021CB21C28923DB009B190822BA189A18E4
:10046000BF4B61CB61C21B6813608723DB0008258B
:100470005B190822BA189A18BA4B61CB61C21B6883
:1004800013608523DB0008255B190822BA189A1827
:10049000B54B61CB61C21B681360B4498022520026
:1004A000CA239B0008255B1908203818181805F086
:1004B000C5FE10220021C6239B005B1908203818B6
:1004C000181805F0B5FE10220021C2239B005B190D
:1004D00008203818181805F0ABFE172001F0D8F9DD
:1004E000D0231B06802212045A625A61002508E0BC
:1004F000280001F0CDF90123AB40D022120653624F
:100500000135082DF4DD10220021BE25AD0008269E
:10051000AB1908203818181805F08AFEF4235B0080
:10052000AA1908218C46BC4462441360904BC02237
:10053000920092198C46BC4462441360C12292001E
:1005400092198C46BC4462441360052003F078F88D
:1005500005F02CFD05F084FD0300864A112103916E
:1005600009390291013101918349009183492000A9
:1005700009F0B6FA0221200009F0B0FBA36B9B0042
:100580000733DB08DB006A46D31A9D4613256D440A
:10059000AD08AD00002607E03002801B013904F0F1
:1005A0008DFAB300E8500136A16BB142F4D80023B4
:1005B000FB6098467D603C60A5E293005B59D021CA
:1005C000090608694340DB05DB0DCB6180235B0036
:1005D0004B610132A36B9342EFD87D603C600221F6
:1005E0005A4B08229B18BA18981809F02FF9061EC2
:1005F00035DBF317F10F701801220240521A9346AF
:100600009B0FF11803220A40D31A9A465C4A5D49AF
:10061000002399460293019300938C20C000082583
:1006200040190824A446BC44604409F044FE564ADC
:1006300056494B4602930193083300934D338C2067
:10064000C0004019AC46BC44604409F034FE434647
:10065000082B00D948E29B004D4AD3589F4646429A
:10066000C7E70C22534653431A00123212B200233A
:1006700002938B23DB0008255B1908218C46BC44C0
:10068000634401930823009307398C20C00040196C
:100690000824A446BC44604409F0CBFBF3170320B4
:1006A000184080198010032104F0E0F900297BD064
:1006B000012900D1D1E0374A3749002399460293F6
:1006C000019312330093083B8A468C20C000082512
:1006D00040190824A446BC44604409F0ECFD2F4AAC
:1006E0004B46029301931E330093143B51468C20DA
:1006F000C0004019A446BC44604409F0DCFD284A0F
:100700004B46029301932A330093203B51468C20A1
:10071000C0004019A446BC44604409F0CCFD214A05
:100720004B4602930193363300932C3B51468C2069
:10073000C0004019A446BC44604409F0BCFD77E009
:100740003CFBFFFF90B80010000030507404000024
:10075000D813002040420F0000E0044030AE0010EB
:100760003CAE001050AE001064AE00109CAE001005
:10077000A8FAB90388B80010AA7E6E4C0000205079
:1007800090AD00109CAF001098AD0010D8B80010CC
:1007900078AE0010F4AD0010B8BA0010FCAD001037
:1007A00004AE00100CAE0010DF4AE0490023994669
:1007B0000293019312330093083B8A468C20C000B9
:1007C000082540190824A446BC44604409F073FD80
:1007D000D74A4B46029301931E330093143B514674
:1007E0008C20C0004019A446BC44604409F063FD5D
:1007F000D04A4B46029301932A330093203B514643
:100800008C20C0004019A446BC44604409F053FD4C
:10081000C94A4B4602930193363300932C3B514611
:100820008C20C0004019A446BC44604409F043FD3C
:10083000C24B08229B18BA18981809F06DF80028C6
:1008400000D051E19630400002F054F90C21300004
:1008500004F00CF94B1C984646E1B94AB349002311
:1008600099460293019312330093083B8A468C20E9
:10087000C000082540190824A446BC44604409F07F
:100880001AFDB04A4B46029301931E330093143B6A
:1008900051468C20C0004019A446BC44604409F075
:1008A0000AFDA94A4B46029301932A330093203B49
:1008B00051468C20C0004019A446BC44604409F055
:1008C000FAFCA24A4B4602930193363300932C3B29
:1008D00051468C20C0004019A446BC44604409F035
:1008E000EAFCA5E7954B08229B18BA18981809F05E
:1008F00013F8002800D10AE10C22534653431A0092
:10090000123212B2002602968B23DB0008255B19F7
:1009100008218C46BC4463440193082300930739A3
:100920008C20C00040190824A446BC44604409F04F
:1009300080FA874A87490296019612230093083B62
:1009400089468C20C0004019A446BC44604409F08C
:10095000B2FC774A029601961E230093143B494647
:100960008C20C0004019A446BC44604409F0A3FC9C
:10097000704A029601962A230093203B49468C2018
:10098000C0004019A446BC44604409F094FC724A7B
:1009900002960196362300932C3B49468C20C000DA
:1009A0004019A446BC44604409F085FC019610231C
:1009B0009A4600936F333F2200218C20C0004019DB
:1009C000A446BC44604409F0DFFBC6239B005B19CE
:1009D00008229446BC4463441868604B02329B462C
:1009E000190009F0B1FC5E490296019614230093A8
:1009F0001B335A4689468C20C0004019A446BC448B
:100A0000604409F058FC02968523DB005B1908223C
:100A1000BA189A18019252460092082304326D21A6
:100A20008C20C0004019A446BC44604409F001FA7F
:100A300002968722D200531908229446BC4463448C
:100A40000193524600920823043275218C20C00085
:100A50004019A446BC44604409F0EBF9C22292005C
:100A600053190822BA189A1810680A22594609F030
:100A70006BFC029601962C23009303335A46494699
:100A80008C20C0004019A446BC44604409F013FC0B
:100A900002968523DB005B1908229446BC4463441C
:100AA000019353460093083B24326D218C20C000F3
:100AB0004019A446BC44604409F0BBF9029689235E
:100AC000DB005B1908229446BC44634401935346FF
:100AD0000093083B243275218C20C0004019A446A5
:100AE000BC44604409F0A5F98C26F60008231D00DB
:100AF000F218FB18D01809F0EFF973190822BA1888
:100B0000981809F091F900227D683C6862E59630FA
:100B1000400001F0EFFFB60703D00123534498468D
:100B2000EAE6D046E8E6C046A0AD0010B8BA00102C
:100B3000A8AD0010B0AD0010B8AD001074040000F6
:100B4000C4AD0010D0AD0010DCAD0010E8AD001059
:100B500014AE0010D8B800101CAE00109027002072
:100B60009CAF0010C44B08229B18BA18981808F0C4
:100B7000D3FE002800D188E0C2239B0008229B18E6
:100B80009446BC4463441B799946002B00D1B4E0E1
:100B9000BA4ABB4E00239A46029301931233009344
:100BA000083B31008C20C000082540190824A446C9
:100BB000BC44604409F07FFBB24A53460293019360
:100BC0001E330093143B31008C20C0004019A44612
:100BD000BC44604409F06FFBFB68002B00D1AAE025
:100BE000012B00D080E74B46002B00D0F1E0C22360
:100BF0009B0008255B1908229446BC44634418688E
:100C0000A14B02329946190009F09EFB9F4900262C
:100C100002960196142300931B334A468C20C00091
:100C200040190824A446BC44604409F044FB0296E1
:100C30008523DB005B1908229446BC44634401937E
:100C4000102399460093083B0C326D218C20C00084
:100C50004019A446BC44604409F0EBF8029689238D
:100C6000DB005B1908229446BC44634401934B4665
:100C70000093083B0C3275218C20C0004019A4461B
:100C8000BC44604409F0D5F82EE79630400001F0EE
:100C900031FFF6070CD4C2239B0008229B18944610
:100CA000BC4463441B79002B02D15B46FB60D846F1
:100CB000FB68002B1ED0012B00D05DE7C222920002
:100CC0000821531808208446BC4463441B79002B38
:100CD00006D053188446BC44634400221A714BE783
:100CE000C2239B0008229B189446BC446344073AE5
:100CF0001A7141E75B46FB603EE70C225B465343BB
:100D00001A00123212B2002302938B23DB00082553
:100D10005B1908218C46BC4463440193082300936B
:100D200007398C20C00040190824A446BC44604404
:100D300009F07FF82CE7C2239B0008255B190822E5
:100D40009446BC44634418684F4B023299461900DC
:100D500009F0FAFA4D4900260296019614230093F1
:100D60001B334A468C20C00040190824A446BC44CA
:100D7000604409F0A0FA02968523DB005B19082283
:100D80009446BC4463440193102399460093083B66
:100D90000C326D218C20C0004019A446BC44604434
:100DA00009F047F802968923DB005B190822944674
:100DB000BC44634401934B460093083B0C327521BD
:100DC0008C20C0004019A446BC44604409F031F8AE
:100DD0008AE6294B082005001B180822BA18981823
:100DE00008F083FD002825DDC22189004B19AC469F
:100DF000BC4463441B68FA229200934205D8013335
:100E00004A19AC46BC4462441360C22189000820E0
:100E10000B188446BC4463441A68FA239B009A4228
:100E200004D90A188446BC44624413600A2001F0C5
:100E300061FEDCE60028F9DAC2229200082153188C
:100E40008C46BC4463441B68002B05D0013B521800
:100E50008C46BC4462441360C2229200082153189D
:100E60008C46BC4463441B68002BDFD152188C466F
:100E7000BC4462441360D9E77404000020AE001043
:100E8000D8B8001028AE0010902700209CAF0010AA
:100E9000E04B08229B18BA18981808F03DFD00286E
:100EA00000D1D2E0C6239B0008229B189446BC4484
:100EB00063441B799A46002B00D1FEE0D64AD749FD
:100EC00000260296019612230093083B89468C2047
:100ED000C000082540190824A446BC44604409F019
:100EE000EAF9CF4A029601961E230093143B494625
:100EF0008C20C0004019A446BC44604409F0DBF9D2
:100F0000C6239B005B1908229446BC4463441B68BB
:100F10009B46C44B023299461900584609F014FA10
:100F2000C14902960196142300931B334A468C2034
:100F3000C0004019A446BC44604409F0BCF90296C4
:100F40008523DB005B1908229446BC44634401936B
:100F5000102399460093083B0C326D218C20C00071
:100F60004019A446BC44604408F063FF02968723FE
:100F7000DB005B1908229446BC44634401934B4652
:100F80000093083B0C3275218C20C0004019A44608
:100F9000BC44604408F04DFFFB68002B00D1AAE080
:100FA000012B00D0A0E55346002B00D0EAE0C62379
:100FB0009B0008255B1908229446BC4463441868CA
:100FC000984B02329946190009F0BEF9964900265D
:100FD00002960196142300931B334A468C20C000CE
:100FE00040190824A446BC44604409F064F9029600
:100FF0008523DB005B1908229446BC4463440193BB
:10100000102399460093083B0C326D218C20C000C0
:101010004019A446BC44604408F00BFF02968723A5
:10102000DB005B1908229446BC44634401934B46A1
:101030000093083B0C3275218C20C0004019A44657
:10104000BC44604408F0F5FE4EE59630400001F0E7
:1010500051FDF6070CD4C6239B0008229B1894462A
:10106000BC4463441B79002B02D15B46FB60D8462D
:10107000FB68002B1ED0012B00D013E7C622920084
:101080000821531808208446BC4463441B79002B74
:1010900006D053188446BC44634400221A7101E709
:1010A000C6239B0008229B189446BC446344073A1D
:1010B0001A71F7E65B46FB60F4E60C225B4653438D
:1010C0001A00123212B2002302938B23DB00082590
:1010D0005B1908218C46BC446344019308230093A8
:1010E00007398C20C00040190824A446BC44604441
:1010F00008F09FFEE2E64B4B0A229946190058463B
:1011000009F022F94849002602960196142300931B
:101110001B334A468C20C000082540190824A446E9
:10112000BC44604409F0C7F802968523DB005B19D4
:1011300008229446BC4463440193102399460093CB
:10114000083B0C326D218C20C0004019A446BC44E1
:10115000604408F06EFE02968723DB005B190822CC
:101160009446BC44634401934B460093083B0C32C5
:1011700075218C20C0004019A446BC44604408F08E
:1011800058FEB1E4234B08255B190822BA189818B9
:1011900008F0ABFB00281FDD244B9B4508D85B46BD
:1011A0000133C62292005219AC46BC44624413601B
:1011B000C621890008200B188446BC4463441A6881
:1011C0001A4B9A4204D90A188446BC4462441360FC
:1011D0000A2001F08FFCEAE60028F9DA5B46002BD2
:1011E00008D0013BC6229200082152188C46BC440C
:1011F00062441360C6229200082153188C46BC44F6
:1012000063441B68002BE3D152188C46BC446244F3
:101210001360DDE77404000020AE0010D8B80010A1
:1012200028AE0010902700209CAF0010F055000061
:101230000C2253465A43123212B2002602968B23D6
:10124000DB0008255B1908218C46BC4463440193EC
:101250000823009307398C20C00040190824A446B5
:10126000BC44604408F0E5FDC74AC84902960196AF
:1012700012230093083B8C20C0004019A446BC44B4
:10128000604409F018F80296CA239B005B190822F3
:101290009446BC44634401932023009320331032CE
:1012A00040218C20C0004019A446BC44604408F092
:1012B000C0FDB74B5B190822BA18981808F02CFB30
:1012C000002800D010E49630400001F013FCD04616
:1012D000FFF70AFC0C2253465A43123212B2002383
:1012E000994602938B23DB0008255B1908218C4665
:1012F000BC44634401930823009307398C26F6000D
:1013000070190824A446BC44604408F092FD9E4A2B
:101310009E494B460293019312330093083B701988
:10132000A446BC44604408F0C6FFFEF7F1FF994EA6
:1013300004F064FE0A22310009F006F896494B4693
:1013400002930193143300931B3332008C26F60072
:101350007019A446BC44604408F0ADFF8C4B5B1987
:101360000822BA18981808F0D7FA002801D0FFF719
:10137000BBFB9630400001F0BDFBD046FFF7B4FB4D
:10138000834B08229B18BA18981808F0C5FA002851
:1013900000D189E0BE239B0008229B189446BC44E0
:1013A00063441B79BB60002B00D1B5E0764A7749D6
:1013B00000260296019612230093083B89468C2052
:1013C000C000082540190824A446BC44604408F025
:1013D00072FF724A029601961E230093143B4946FF
:1013E0008C20C0004019A446BC44604408F063FF50
:1013F000BE239B005B1908229446BC4463441B68CF
:101400009A46644B023299461900504608F09CFFF8
:1014100061490296019614239B4600931B334A466A
:1014200089468C20C0004019A446BC44604408F0A2
:1014300042FF5B4A029601965B4600934B33494656
:101440008C20C0004019A446BC44604408F033FF1F
:10145000FB68002B7ED0012B01D0FFF745FBBB685A
:10146000002B00D09EE0BE239B0008255B190822BC
:101470009446BC4463441868464E0232310008F07A
:1014800063FF4549002302930193143300931B33F8
:1014900032008C20C00040190824A446BC4460449B
:1014A00008F009FFFFF720FB9630400001F022FB17
:1014B000F6070CD4BE239B0008229B189446BC441C
:1014C00063441B79002B02D15B46FB60D846FB6866
:1014D000002B1ED0012B00D05CE7BE229200082119
:1014E000531808208446BC4463441B79002B06D063
:1014F00053188446BC44634400221A714AE7BE2351
:101500009B0008229B189446BC446344073A1A7116
:1015100040E75B46FB603DE70C225B4653431A0005
:10152000123212B2002302938B23DB0008255B19D1
:1015300008218C46BC446344019308230093073977
:101540008C20C00040190824A446BC44604408F024
:1015500070FC2BE70F4E0A223100504608F0F4FED3
:101560000D49002302930193143300931B3332007F
:101570008C20C000082540190824A446BC446044BF
:1015800008F099FEFFF7B0FA20AE0010D8B80010AE
:1015900074040000902700209CAF001028AE0010BB
:1015A0002CAE0010974B08255B190822BA18981822
:1015B00008F09BF900286DDD934B9A4508D85346F7
:1015C0000133BE2292005219AC46BC4462441360FF
:1015D000BE21890008200B188446BC4463441A6865
:1015E000894B9A4204D90A188446BC446244136069
:1015F000BE239B0008229918082038180E1833685B
:101600005801C01A8000C018C00004F0CFFC7F4908
:1016100004F0C3FC7E4904F0AAFC7E4904F0A2FC5D
:1016200004F01EFD8146B060F0603B68DB6A9B46BB
:101630003B685B6A9A46052002F002F804F0B6FCAB
:10164000061C484604F0B2FC011C301C04F08FFC60
:10165000814604F005FD86B2002E39D0300004F03A
:10166000A5FC011C484604F078FC8721C90504F05C
:1016700094FC04F0F5FCC0B200023604304353463B
:101680005B005344DB005B44C83318600A2001F060
:1016900031FAE8E60028ABDA5346002B08D0013BCC
:1016A000BE229200082152188C46BC44624413604A
:1016B000BE229200082153188C46BC4463441B6828
:1016C000002B95D152188C46BC44624413608FE7BE
:1016D0000020D1E70C2253465A43123212B20026A0
:1016E00002968B23DB0008255B1908218C46BC443D
:1016F000634401930823009307398C20C0004019EC
:101700000824A446BC44604408F093FB424A434981
:101710000296019612230093083B8C20C0004019CA
:10172000A446BC44604408F0C6FD3D4A3D490296CB
:101730000196142300931B338C20C0004019A4464B
:10174000BC44604408F0B7FD2E4B5B190822BA1860
:10175000981808F0E1F8002801D0FFF7C5F9963095
:10176000400001F0C7F9D046FFF7BEF90C225346FE
:101770005A43123212B2002602968B23DB00082550
:101780005B1908218C46BC446344019308230093F1
:1017900007398C20C00040190824A446BC4460448A
:1017A00008F047FB1C4A1D4902960196122300933C
:1017B000083B8C20C0004019A446BC44604408F09B
:1017C0007AFD194A174902960196142300931B3398
:1017D0008C20C0004019A446BC44604408F06BFD56
:1017E000084B5B190822BA18981808F095F80028D9
:1017F00001D0FFF779F99630400001F07BF9D0462F
:10180000FFF772F974040000809698000050C347F7
:10181000004043447D0A004320AE0010D8B80010B9
:10182000DCAD00109CAF0010E8AD001010B58300D7
:10183000084A944663441A68402462408034144045
:101840008022520113431C60C000034B9C4660443D
:10185000416010BD04C001400040014080000B4BBE
:101860009C46604400290DD00823002A0CD0042295
:101870001343026853400C221A4080235B01034348
:101880001A6070470023F0E70022F1E704C001402E
:1018900010B501238340D022120693629361052183
:1018A000FFF7C4FF10BD0000EFF3108072B6034BCA
:1018B0001B68002BFBD0BFF35F8F70472C0100D05B
:1018C000BFF35F8F024B00221A6080F310887047CD
:1018D0002C0100D0F8B506000C001500FFF7E4FF5E
:1018E000E308F718F15C07222240012393400B42E2
:1018F00005D1DBB20B433B70FFF7E2FFF8BD2100DF
:10190000280001F083FDF0B583B0060001911400BA
:101910001F00FFF7C9FF00E00134BC420CD8E30808
:10192000F518F35C0721214001228A401A42F3D1C5
:10193000D2B21A432A7001E001246442FFF7C0FFCB
:10194000002C02DB200003B0F0BD019B002BF9D07E
:10195000089801F05BFD0000034B1B680220184053
:10196000431E9841C0B2704700C00640002307E004
:10197000054A9A189200BFF35F8F0021116001336E
:101980001F2BF5D97047C04640000034054A107837
:10199000431CDBB21370172B02D9130010221A70EC
:1019A0007047C046F812002010B582B00100054C07
:1019B000054B00931F2318222000FFF7A4FF02B05D
:1019C00010BDC046E8220020B4BD0010074B9B6844
:1019D000103080001950BFF35F8FBFF35F8F044B4F
:1019E0000021196082F310887047C04600ED00E0C6
:1019F000240100D010B5091A0B1F0A4A944661440D
:101A0000094A914208D8DA0706D45B105B055B0DE2
:101A10000648184380B210BD054B064A0648992176
:101A200001F05AFCFC070000FE0F000000E0FFFF81
:101A3000D0BD001030C0001000BE001010B5091A53
:101A400004394A08090B08D14905490D064B0B43D7
:101A50000380064B1343438010BD054B054A0648DF
:101A6000A12101F039FCC04600F0FFFF00F8FFFFA4
:101A700040BE001004C0001000BE001001238340CF
:101A8000034A10681840431E9841C0B27047C046D0
:101A900000E100E0002904D0034B1860034B1860FC
:101AA0007047034B1860FBE780E200E000E100E0D4
:101AB00080E100E010B5012383401800FFF7EAFF42
:101AC00010BD000001238340014A13607047C046E7
:101AD00000E200E0024B9B6810308000C058704765
:101AE00000ED00E010B5FFF7F5FF002805D0054B2D
:101AF000C01A2F2803D8012010BD0020FCE70020C9
:101B0000FAE7C046FC12002070B504000D00EFF3A8
:101B1000108672B60C4B1B68002BFBD0BFF35F8F97
:101B20002000FFF7D7FF094B984201D0A84205D10A
:101B3000320029002000FFF749FF70BD044B054A21
:101B400005487C2101F0C8FB240100D0CD01001024
:101B500050BE001064C0001000BE0010F0B5DE469C
:101B600057464E464546E0B589B08146019115007D
:101B7000EFF3108A72B6744B1B68002BFBD0BFF3D7
:101B80005F8F724B0027DF57002F40DB7C00E4198A
:101B9000A4006F4824180622A2566C4B1A706D4B95
:101BA0009A684B4610339B00D35898461E00181A6B
:101BB0002F2838D9684B98452FD105AE674B338015
:101BC00067497B009B46D8198000614B984640448A
:101BD0000230FFF70FFF7080624BB380FF23B371B9
:101BE000F571019B07935F44BB00434407CE07C3D5
:101BF00001231C43A046524641464846FFF7E6FEF5
:101C000009B0F0BCBB46B246A946A046F0BD564B53
:101C1000564A5748CD2101F05FFB564B534A544872
:101C2000D42101F059FB01380C2102F047FF0029B3
:101C300012D101239E43B34633000026DA79AA422B
:101C400011D90621595600290CDB4A00521892007E
:101C50003F491E008B18F1E7474B444A4448E021B6
:101C600001F03AFB1E00002E3BD005AB434A1A8020
:101C7000813A5A800623F3560293002B18DABD20CE
:101C8000000205AB9B469880029A9A71DD71019A19
:101C90000792301D2100FFF7ADFEB080B7712C4BCD
:101CA0007A00D21992009B185A4613CA13C3A2E7AE
:101CB0007800C0198000264BC0180430311DB3884D
:101CC000DA0A1C2A07D15B055B1502335B00C918D1
:101CD000FFF790FED5E72A4B2A4A2548A72101F0B5
:101CE000FBFA05AE1D4B33801D497B000293DB19C7
:101CF0009B00174A90461A0042440392901CFFF73B
:101D000079FE7080039A101D5946FFF773FEB0806C
:101D10001D4B5A464146521A524153431B0DB37153
:101D2000F571019A0792029B9C466744BB004344AD
:101D300007CE07C3114B5A461380813B53800123C2
:101D40001C43A04657E7C046240100D00D2A0020BE
:101D5000FC12002000ED00E0CD01001000A1FFFF0B
:101D60002C13002000BDFFFF88BE00104CC00010E7
:101D700000BE0010B0BE0010D8BE00100148000028
:101D80004CBF00103CC00010AAAA0000F0B5CE461F
:101D9000474680B583B006000D00EFF3108872B699
:101DA000554B1B68002BFBD0BFF35F8F534B9A68DA
:101DB00034001034A300D758514B9F4207D0AF4294
:101DC00000D197E001974F4BFB1A2F2B09D94246C0
:101DD00039003000FFF7FAFD03B0C0BCB946B04689
:101DE000F0BD3000FFF74AFE814600213000FFF7CA
:101DF00061FEBFF35F8FFEF736FA002801D0844200
:101E000011D10123019C9C430021A368AB4212D055
:101E10000622A256002A0DDB53009B189B00394A6C
:101E20002100D418F1E7384B384A2C213848FF31CB
:101E300001F052FA2100AB4255D106256557002D1D
:101E400037DB304B6A00521992009B189A68A260E7
:101E5000DA79E2719B795BB2A371002B10DABD20B5
:101E60000002A080274B6A00521992009B18294A51
:101E700011789971157049463000FFF71BFEA6E7EF
:101E8000201D6B005B199B001E4A9B18191D9B8827
:101E9000DA0A1C2A07D15B055B1502335B00C918FF
:101EA000FFF7A8FDDDE71C4B1C4A1948A72101F0EC
:101EB00013FA002812D100290ED0FF238B71184B82
:101EC0008B8014490B78A3710E4A164BA41A6441F7
:101ED00063431B0D0B70CEE7094FF2E71249201D3B
:101EE000FFF7ACFDC7E7114B084A60210848FF31F6
:101EF00001F0F2F9024F6AE7240100D000ED00E0A2
:101F0000CD010010FC12002064BF00101CC00010A6
:101F100000BE00100D2A00204CBF00103CC0001075
:101F200000BDFFFFAAAA00003613002088BF0010E2
:101F300070B50400012606432D4BF31A2F2B28D829
:101F4000FEF791F900282BD0EFF3108C72B6294BD5
:101F50001B68002BFBD0BFF35F8F254A264D210065
:101F6000891A49414D432D0D6DB2244B9B68800069
:101F70001B58B3421BD00021032932D81C4B4A0006
:101F8000521892009B189B795BB2AB421FD0013173
:101F9000F2E71B4B1B4AC2211B48490001F09CF988
:101FA0001A4B184A88211848FF3101F095F9134B54
:101FB0009B68174A1A50174B1A78A2711D70BFF30D
:101FC0005F8F0C4B00221A608CF3108870BD084B99
:101FD0004A00501880001818FF2686710E4A828029
:101FE000E9E70E4B074ACC210748490001F074F994
:101FF000FC120020240100D0AAAA000000ED00E09D
:1020000090BF0010E8BF001000BE0010B8BF001065
:10201000CD0100100D2A002000BDFFFFC4BF00103D
:102020000022044B02E0044902C30132072AFAD914
:102030007047C04600E400E08080808000B583B037
:102040000100D0231B061B680648C018064B0093EE
:1020500005230022FFF757FC002801DB1F23181A75
:1020600003B000BD042A0020CCBF0010024B9C46E8
:1020700061448900016070474000003470B505007C
:102080000C00080000F0C4FD200000F0A9FE084983
:10209000200000F0E9FDFFF779FC064B9C46604408
:1020A000800068602C75044BA400E55070BDC046EC
:1020B000B123001040000034B82700200A4B1A68F2
:1020C000EFF3108172B61368002BFCD0BFF35F8F63
:1020D000054B1B68BFF35F8F00221A6081F31088E5
:1020E00040BF002000217047D429002010B50029EE
:1020F00020D003681B7B99421CD88368154CA446EA
:10210000614409015B181C685968002A18D00368EB
:102110001B7B9A4214D883680E488446624412019D
:102120009B181A685B6801208B4201D80ED00020F2
:10213000C0B210BD084B094A09483B2101F0CCF858
:10214000054B064A06483B2101F0C6F8A242EFD8EB
:10215000EDE7C046FFFFFF0FCCC0001090C300109A
:1021600094C0001010B500291DD0037B99421AD8E5
:1021700004684B005B18033BE418002919D0002ABF
:102180001DD0914221D0002A25D0037B9A4222D82B
:10219000006853009B18033BC318997021780029ED
:1021A0001FD1227010BD104B104A1148682101F058
:1021B00093F8104B104A0E486F3101F08DF80F4B19
:1021C0000D4A0B48702101F087F80D4B0A4A084868
:1021D000712101F081F8044B044A0548682101F09F
:1021E0007BF859702270DDE700C10010FCC30010BD
:1021F0001CC1001068C10010D8C3001074C10010C9
:1022000080C1001070B506000D001400002914D024
:10221000002A14D0436880689847002806D022001E
:1022200029003000FFF79EFF280007E02A00210068
:102230003000FFF797FF200000E0100070BD08009D
:10224000FCE70000F0B583B00500009201930AABF3
:102250001C780BAB1F78002C26D003685A7B944265
:1022600007D10123002B19D1002C3AD1200003B053
:10227000F0BD002C0CD01A7B944209D81A68630078
:102280001B19033BD3189B78002BEBD00123E9E704
:102290003C4B3D4A3D48682101F01EF83C4B3D4A0D
:1022A0003D48652101F018F803689C7B002CDBD0C9
:1022B00011D01A7B94420ED81A68610009190339AB
:1022C000521851789973002900D1D9730023937063
:1022D00053701370C8E72B4B2B4A2C48682100F031
:1022E000FBFF002C37D02B681B7B9C4233D8AB689C
:1022F0002A4AA21812019B18009A1A60019A5A6081
:10230000089A9A60099ADA602E68002C29D02ED09B
:10231000337B9C422BD8336862001219033A9B1816
:1023200000229A705A701A70717B22003000FFF7F9
:1023300069FF7073844299D1287D009A019B00F057
:10234000DBFC061E01D0002F17D00C9B002B00D108
:102350008CE71E708AE7124B124A0F483B2100F0AF
:10236000BBFF114B114A0948A52100F0B5FF054BF1
:10237000054A0648682100F0AFFF2868210000F0F8
:10238000DDFEE2E700C10010FCC300101CC100101C
:1023900098C1001008C4001094C00010FFFFFF0F88
:1023A000CCC0001090C3001090C00010ECC300100F
:1023B000F0B5DE4657464E464546E0B58BB009902F
:1023C00000230893B24B8200D55833E0B14BB24A98
:1023D000B2483F2100F080FFB14BB24AB2483B21E6
:1023E00000F07AFFB14BB24AAF488C2100F074FF85
:1023F000B04BAF4AAC48902100F06EFFA84BAE4AFC
:10240000A948402100F068FF43461A685B680998B4
:1024100000F072FC00239B469A466B68BFF35F8F07
:1024200000221A6089F310885346002B53D10028EC
:1024300000D126E100F0F8FB02000B1EC6DB0020F5
:102440000021069007916868EFF3108972B6016861
:102450000029FCD0BFF35F8F2868447B002C35D067
:10246000BAD0017B8C42B7D8AE6894496118090193
:10247000B046884441460E684F68B61A9F41002F07
:10248000C2DC01D1002EBFD1002100F04DFEA042E0
:10249000A8D143461A685B680692079343469B6837
:1024A0009A464346DB689B465346002BA0D0002C3F
:1024B000A4D02B681B7B9C42A0D8EA68631ED35C27
:1024C00008931B02184328610020A6E700239B46BF
:1024D0009A460020A1E7089B1B02234398465946D1
:1024E0001800D04706000F006A68EFF3108972B633
:1024F000136859424B41D9B2002BF9D1BFF35F8F1A
:10250000002F26DB002F52DD2B69002B53D04345D3
:1025100072D100F089FB02000B1E73DB0100180072
:1025200092197B41984202D804D1914202D90122EA
:102530005242D317002B6BDB002104910131039130
:10254000029459460191514600912800FFF77AFE06
:1025500049E02B69002BD5D043451CD1069A079B37
:1025600010001900921BBB41994202D804D190423D
:1025700002D901225242D317002B12DB0021049111
:10258000013103910294594601915146009128006E
:10259000FFF758FE27E04A4B454A43489F2100F089
:1025A0009BFE3C4B3C4A3D483F2100F095FE002FEE
:1025B00001D1002EA8D12A68002C44D0537B9C4224
:1025C0002CD1012100293ED1D37B002B41D1D473E2
:1025D000002C50D02B681B7B9C424CD8EA68013CF5
:1025E000135D0133135500232B616A68BFF35F8FBE
:1025F000136089F310881DE7314B2D4A2A48A22128
:1026000000F06AFE234B244A24483F2100F064FE78
:10261000204B214A21483F2100F05EFE002C0CD0C7
:10262000137B9C4209D8106863001B19033BC31835
:102630009B78002BC6D00121C4E7224B224A2348B5
:10264000682100F049FE224B224A2048F62100F082
:1026500043FE002B09D0117B8B4206D8106859002D
:10266000CB18033BC3185C70B1E7164B164A1748EA
:10267000682100F031FE0A4B0F4A0B48402100F060
:102680002BFE0BB0F0BCBB46B246A946A046F0BD3F
:10269000B8270020C0C100105CC30010DCC10010CE
:1026A000CCC0001090C3001094C0001024C20010D1
:1026B00074C300103CC20010B4C30010FFFFFF0F32
:1026C00048C2001000C10010FCC300101CC1001063
:1026D00084C20010C8C3001010B50A4B5B68002B01
:1026E00004D009480A21FFF7C1FC10BD054C074A78
:1026F00020682300102100F03BFC03212000FFF79D
:10270000BDFCEEE744130020D4290020ED2000108A
:1027100010B5064B5B68002B01D0044810BD044B7C
:10272000044A05485C2100F0D7FDC0464413002050
:10273000A8C200109CC3001094C00010F0B5DE4683
:1027400057464E464546E0B58BB0804616001F0002
:10275000149B9A46159B994616AB1B789B461F23E4
:1027600002AA9446634400221A7036E0002809D079
:1027700042461268127B904204D84246D168421EFB
:102780008A5C4CE0454B464A4648402100F0A4FD97
:102790000798002B79D05B46002B76D04946D0476E
:1027A00004000D0003000B4300D175E000294ADB53
:1027B00000F03AFA02000B1E59DB01001800121952
:1027C0006B41984202D804D1914202D9012252426F
:1027D000D317002B51DB16001F0043465A68EFF356
:1027E000108472B6136859424B41D9B20791002B3D
:1027F000F8D1BFF35F8F1F3302AA9446634404935A
:102800000023039302934B460193534600933200F7
:102810003B004046FFF716FD031EA7D102004146CC
:102820004968BFF35F8F00250D6084F31088002B8B
:1028300029D01F2302A98C4663441B78002BA7D103
:1028400012021043A5E730003900361BAF41B942F0
:1028500002D804D1B04202D901267642F717002FE0
:10286000BBDA114B114A12483F2100F035FD0E4BE7
:102870000E4A0F483F2100F02FFD0B4B0B4A0C482E
:102880003F2100F029FD012040420BB0F0BCBB46C7
:10289000B246A946A046F0BD0798F6E7CCC00010A6
:1028A000B4C3001094C00010C0C100105CC300107D
:1028B000DCC10010F8B504004268EFF3108572B671
:1028C000136858424341D8B2002BF9D1BFF35F8F50
:1028D000CBB22268567BB3421BD10120002847D0DF
:1028E000206988422AD0090AC9B2002B2DD020685D
:1028F000007B834229D8E668581E305C88422AD083
:1029000000206368BFF35F8F00221A6085F3108890
:10291000F8BD002B0CD0167BB34209D817685E00B7
:10292000F618033EBE19B678002ED7D00120D5E7A1
:10293000124B134A1348682100F0CEFC124B134A85
:1029400085211348490000F0C7FC124B124A104879
:10295000402100F0C1FC1900100000F0EFFB00283E
:10296000CFD10E4B094A12210948FF3100F0B4FCC7
:1029700023698B42C5D100232361C2E700C1001047
:10298000FCC300101CC10010CCC2001044C30010D6
:1029900094C00010CCC00010B4C30010F0C20010EE
:1029A000F0B587B006000F00FDF75DFC00281FD1D1
:1029B00006246442E517A4197D41BD4202D803D123
:1029C000B44201D900240025002D14DB04940595A0
:1029D00000F02AF902000B1E13DBA41A9D41002D02
:1029E00017DC14D03000390000F02AF907B0F0BD30
:1029F000234800F00BFD234B234A24483F2100F0DD
:102A00006BFC204B204A21483F2100F065FC002C44
:102A1000E8D0FFF77DFE0023029301931C4B009347
:102A2000049A059BFFF78AFE002818DADAE70023EC
:102A300000E00023002BD5D1164B1A68EFF310816C
:102A400072B61368002BFCD0BFF35F8F114B1B686D
:102A5000BFF35F8F00221A6081F3108820BF0499B2
:102A6000059A0D4B5B6A9A42E3D80B48806A88420C
:102A700003D29A42DBD00123DCE70123DAE7C04628
:102A8000F4C20010C0C100105CC30010DCC1001013
:102A9000BD200010D429002000400540F8B50400F6
:102AA0000D0000F0C1F802000B1E10DB2000290011
:102AB000801859418B4202D804D1824202D90120A8
:102AC0004042C117002908DBFFF76AFFF8BD064B3B
:102AD000064A07483F2100F0FFFB034B034A044826
:102AE0003F2100F0F9FBC046C0C100105CC30010DC
:102AF000DCC1001010B5FA2292000023002103F07F
:102B00000FFAFFF7CBFF10BD70B584B006000C00C4
:102B1000FFF7FEFD002302930193194B009332004F
:102B20002300FFF70BFE051E11DD20BFFFF7F0FDB0
:102B30002900FFF7BFFE134B5B6A9C421BD8114A6A
:102B4000926AB2421AD29C4213D0012014E00D4B7B
:102B50005B6A9C4209D80B4A926AB24207D29C42F5
:102B600001D0012008E0002006E0002004E0012060
:102B700002E0002000E0002004B070BD0120FBE76F
:102B8000BD2000100040054070B5EFF305833F20E5
:102B900018401038EFF3108C72B6184B1B68002BDE
:102BA000FBD0BFF35F8F012319008140144A5163AA
:102BB000144A12781400C440234213D0104B5C6AAC
:102BC000114B8500EB589C4205D3104BEB580D4C34
:102BD0008A43227007E00A4A031D9B0099589950C6
:102BE000002300E00023BFF35F8F044A002111603F
:102BF0008CF31088002B00D0984770BD280100D0BE
:102C000000400540112A0020E0290020D8210020A2
:102C100010B50100024A034B1800FEF75BFE10BD21
:102C200020C400100B2A0020044B5B6A034A906A00
:102C30001900536A9942F9D17047C04600400540D7
:102C4000084B5B6A01E0074B5B6A8B42FBD301E0F8
:102C5000044B5B6A8B4203D1024B9B6A8342F7D3DE
:102C60007047C0460040054070B504000E00EFF309
:102C7000108572B61B4B1B68002BFBD0BFF35F8F18
:102C8000002E1CD02000FEF725FF174B83420BD0EF
:102C900019002000FEF738FF01212000FEF70AFF8F
:102CA0000123A340114A1360114BA400E650BFF367
:102CB0005F8F0C4B00221A6085F3108870BD0C4B9F
:102CC000A2000021D1500122A2400A490B7893436F
:102CD0000B7005492000FFF759F800212000FEF78E
:102CE000E9FEE4E7280100D0892B00103860054098
:102CF000D8210020112A0020F0B5DE4600B584B0AE
:102D00000400150001921E000293FFF78DFF03954A
:102D10008E4202D84ED185424CD9EFF3108B72B659
:102D2000274B1B68002BFBD0BFF35F8F254A17781A
:102D30000125A540EBB23B431370234B5D63221D7D
:102D400092000199D150214AA100029888501B6A33
:102D50002B4212D11C4B1B6C2B4208D00020BFF31E
:102D60005F8F174B00221A608BF3108823E0184BFB
:102D7000184A1948C12100F0AFFAFFF755FF8E42FB
:102D800014D802D1039B834210D80E4B1B78BB4250
:102D90000ED00D4B1D625D631F2222400123934024
:102DA0000E4A1360074B1F700120D8E70020D6E7BA
:102DB0000120D4E7012004B080BCBB46F0BDC04672
:102DC000280100D0112A002000400540E029002001
:102DD00044C40010ACC4001068C4001080E200E0DD
:102DE000EFF3108C72B60B4B1B68002BFBD0BFF3BC
:102DF0005F8F01238340084A136208490A789A4387
:102E00000A70BFF35F8F034B00221A608CF31088A7
:102E10007047C046280100D000400540112A00201C
:102E200010B500291DD0037B99421AD804684B00C5
:102E30005B18033BE418002919D0002A1DD09142E9
:102E400021D0002A25D0037B9A4222D80068530063
:102E50009B18033BC3189970217800291FD1227059
:102E600010BD104B104A1148682100F035FA104B84
:102E7000104A0E486F3100F02FFA0F4B0D4A0B48E5
:102E8000702100F029FA0D4B0A4A0848712100F020
:102E900023FA044B044A0548682100F01DFA5970D2
:102EA0002270DDE700C10010B4C500101CC1001085
:102EB00068C10010A0C5001074C1001080C10010CE
:102EC00070B506000D001400002914D0002A14D09B
:102ED000436880689847002806D022002900300007
:102EE000FFF79EFF280007E02A0021003000FFF7CF
:102EF00097FF200000E0100070BD0800FCE7000014
:102F000010B50023437301338373037BC373012321
:102F1000027B9A4213D9002B0BD0027B934208D834
:102F200001685A00D218033A8A180133DBB2537091
:102F3000EEE70C4B0C4A0D48682100F0CDF9002A51
:102F400009D0924207D8016853009B18033BCB1865
:102F500000225A7010BD034B034A0448682100F058
:102F6000BBF9C04600C10010B4C500101CC1001060
:102F700010B5017342608360FFF7C2FF10BD00000F
:102F800070B50400081E00D170BD002931D0237B2C
:102F900099422ED822684B005B18033BD3185A780D
:102FA000002AF1D02BD0237B9A4228D821685300E5
:102FB0009B18033BCB185D7800215970002824D062
:102FC000237B984221D8216843001B18033BCB1870
:102FD0000021597001002000FFF772FF0600290050
:102FE0002000FFF7CDFF020031002000FFF768FF4F
:102FF000CAE7094B094A0A48682100F06DF9064BF7
:10300000064A0748682100F067F9034B034A044861
:10301000682100F061F9C04600C10010B4C500107D
:103020001CC1001070B505000C001600002927D047
:103030002CD0037B994229D8036849000919033928
:103040005B185A78002A27D19A78002A2AD1197851
:10305000FFF796FF0300002E03D0EA7B002A27D15A
:10306000EC73002B36D1002C47D02B7B9C4244D8EC
:103070002A6863001B19033BD31800225A7070BDE5
:10308000214B224A2248382100F026F9214B224ABE
:103090002248682100F020F9214B1C4A1C483A21A3
:1030A00000F01AF91F4B194A19483B2100F014F996
:1030B000002A09D0297B8A4206D82E6851008A1836
:1030C000033AB2185470CBE7124B134A13486821E5
:1030D00000F002F9002B0AD02A7B934207D82A6815
:1030E00043001B18033BD31800229A70BBE7094B1F
:1030F000094A0A48682100F0EFF8064B064A0748DB
:10310000682100F0E9F8C046C8C400108CC5001062
:10311000D0C4001000C10010B4C500101CC10010C4
:1031200008C5001030C5001070B504000A00457BCA
:103130002900FFF777FF6073280070BD70B50400A9
:10314000002966D0437B8B420ED0002911D0037B2F
:1031500099420ED805684B005B18033BED18AB781D
:10316000002B0CD1002055E00121FFF7DDFF0120ED
:1031700050E0294B294A2A48682100F0ADF8002B7D
:103180001FD0027B93421CD800685A00D318033B1F
:10319000C218C35C8B421AD0002B1BD0227B9342F7
:1031A00018D820685A00D318033BC01843788B42C4
:1031B00016D0002BF0D11B4B1B4A1C48672100F096
:1031C0008BF8154B154A1648682100F085F86B7886
:1031D000137007E0104B114A1148682100F07CF889
:1031E0006B7843700023AB706B7001222000FFF7F7
:1031F00019FF0200617B814205D02000FFF760FECD
:103200006073012006E00A4B074A08486D2100F070
:1032100063F8002070BDC04600C10010B4C50010A6
:103220001CC10010C4BF001074C50010D0C4001031
:1032300054C5001010B50400FEF7A8FB01002000E3
:10324000FEF714FFFF232371BFF35F8F10BD10B58E
:103250000400FEF79BFB01002000FEF707FFFF23A1
:10326000237100236371BFF35F8F10BD034B9C4636
:10327000614489000160BFF35F8F704740000034F4
:1032800010B504000120FEF78FFB01002000FFF7BE
:10329000EDFF10BD00BEFDE703000A4A1268002AD8
:1032A00008D0084A1068C318074A9A4206D3054A4C
:1032B00013607047034A05491160F2E7012040425C
:1032C000F7E7C0468823002000000420142A0020CD
:1032D00010B5FFF7DFFF000030B583B00D00190017
:1032E000002A0DD0084B002A0CD0084C0192009304
:1032F0002B000200200003F0E9F80120FFF7CAFFCD
:10330000034BF0E7024AF0E788C6001098C60010A9
:1033100094C6001070B52B4B2B4A1A602B4B2C4ACD
:103320001A602C4B9A682A4B9343FAD12A4C01E03D
:1033300008CC9847294B9C42FAD300F001F9234B63
:10334000274A1A60234B9B68DB43DB01FAD1254BEC
:1033500040229A675A671A67DA66234C09E0234BC2
:10336000234A24488321FFF7B7FF2000FFF762FFBD
:103370000834214B9C4209D22368002BF5D0012B45
:10338000EDD12000FFF763FF0834F2E71B4DA96879
:103390001B4CC022200002F051FFAC60FCF763FF21
:1033A000002800D000BEFEF7E1FAFEF739FEFFF775
:1033B00093F9144C01E008CC9847134B9C42FAD384
:1033C00070BDC04600E00040BFCDFBFE00F00040F5
:1033D000FE7F3C0000C00040281C0020381C00205C
:1033E000FFFFFF0100F00140201C0020C8C60010B4
:1033F00040C70010E8C60010281C002000ED00E0C7
:1034000000000020381C0020401C00200FB400B534
:1034100083B0084803F028F8049B002B07D005A9C7
:103420000191180003F030F8034803F01DF8012063
:10343000FFF730FF2CC700103CC70010F8B5DE4680
:1034400057464E464546E0B506000F0015000A9A5D
:1034500093424ED31A0E92461B0298460A9A0023B4
:103460004046514601F06CFB81467400A419A4004B
:103470002E4B9C4664446368834200D26060331FD5
:10348000DBB29B46012B3AD9C0239B012343802208
:1034900012011A60264BB200D158002905D0586994
:1034A00001F00CFB01300138FDD16D0123685D4056
:1034B000E0222A4080235B0123431A605A46012AF6
:1034C00028D980239B012343802212011A604B4696
:1034D00063604A4600234046514601F031FB144BDD
:1034E000B60098510120F0BCBB46B246A946A046A2
:1034F000F8BD104B104A11482D21FFF7EDFE012FAA
:10350000C2D1C0239B01234303221A60A368DB07B7
:10351000FCD5CAE72168794003220A401A60A368F3
:103520000125BD401D42FAD0CBE7C04600800040D7
:10353000EC22002050C70010A8C7001064C700107C
:1035400030B583B00C2000F021F9FEF705FA002811
:103550000DD0002304E02E4A99002E4888500133F4
:10356000092BF8D92A4B2C4A5A6203B030BD2B4B99
:1035700000229A6700F07CF9294B01221A60274B40
:103580005B6C012BFBD1274B03221A60234B9B6BF7
:10359000012BFBD1013300930433234A012123483B
:1035A00000F054F805230093214A0121214800F03E
:1035B0004DF8214B0093002202210420FFF73EFF2B
:1035C0001E4D00952B00002201210520FFF736FF3C
:1035D000104C00942300002200210720FFF72EFF4B
:1035E00000942300002200210820FFF727FF0A4B48
:1035F00000932300002200210920FFF71FFF009500
:103600002B00002200210620FFF718FFADE7C0467F
:10361000EC220020006CDC021BB7000000800040A0
:103620003CB0004030B00040002F6859008002409C
:10363000008C864700C00240001BB700405973074A
:10364000014B8000C0587047EC220020F0B5C64600
:1036500000B504000F0090461D000C2001F02EFA6A
:1036600006003D4A42443D4B9A4243D843011B1A4F
:103670009901C91AC90009188901404601F01EFACA
:103680000200103A98235B009A4239D86B1E062B31
:103690003CD8069B013B062B38D8069B9D423BD36A
:1036A00043461B09B3423DD32D04069B1E033543FD
:1036B0002368002B3CDB2A4B9C424AD080235B01D1
:1036C000284A1360284A1360284A926819009143D7
:1036D000FAD12760A060221DC0239B011343212241
:1036E0001A602268002AFCDAE56008221A6080BCB1
:1036F000B846F0BD1E4B1F4A1F481121FFF7ECFDD5
:103700001E4B1C4A1C481921FFF7E6FD1C4B194AA9
:1037100019481C21FFF7E0FD1A4B164A16482221D2
:10372000FFF7DAFD184B134A13482521FFF7D4FDA4
:1037300022683F231340BB42BDD1A3681B051B0D6C
:103740008342B8D1E368EE22D2021340AB42B2D139
:10375000CDE780239B01B3E780E84BD380F8A93203
:1037600000C0024000E0004000F0004000C0004007
:10377000B8C70010F4C8001018C8001058C80010CE
:1037800074C80010C0C80010D8C8001080239B0067
:103790000343014AD362704700800540024B1A6818
:1037A000024B5A607047C0468C27002000800540BD
:1037B00010B50200164B8020C0051860154B164846
:1037C000186000290AD0154BE021C9041960002AAD
:1037D00009D1124B802212061A6010BD0C4BE02159
:1037E000C9041960F3E753019B1A9800801800017F
:1037F0000B4B186080235B04984202D3084B094AA4
:103800001A60FFF7CBFF054B8022D2051A60E4E770
:1038100000B0054008200140FCFF010000A0054069
:103820008C270020FFFFFF0010B5030010000C4A9A
:103830008024E4051460002B0DD001221343094AB3
:10384000094CD461094C5C401462516293620021BE
:10385000FFF7AEFF10BD034B0022DA61F7E7C04669
:1038600000B0054000800540D3C007B02D3FF84FA1
:10387000064BAA2212011A602F22DA60044B054A75
:103880001A60024B5B68002BFBDA70470040024075
:103890000060024000B0FA00704710B5002802D066
:1038A0000B684968984710BD0100002007E08300BD
:1038B0001B185B00501C08601078C01830380A686C
:1038C0001378303BDBB2092BF1D97047F0B5DE46F7
:1038D00057464E464546E0B583B093461F000C9BC5
:1038E0009A460D9C0E9B99460F9B9B0703D0B846AA
:1038F0000F00060022E00192A34688464E46B946D4
:103900000700B44207D2551C4B4641462020B84719
:1039100001342A00F5E73D004F465C46019B9B467B
:10392000B1464646B84637002E0007E0013C551C1C
:103930005346185D43463900B0472A00002CF5D1A4
:1039400035003E0047460F9B9B0707D4100003B08D
:10395000F0BCBB46B246A946A046F0BDB0464E46B6
:10396000B9462F005D46531BB342EFD2541C4B4661
:1039700041462020B8472200F5E7F0B5CE4647463D
:1039800080B585B0944698460C9D0D9C0EAB1B7877
:103990009946109A119B129EB7071CD4002B0CD08D
:1039A000F7070AD54F46002F02D10C37374204D013
:1039B000013B02E030272F550134944201D21F2CE5
:1039C000F8D9F70707D59C4205D21F2C03D830271A
:1039D0002F550134F5E7F70615D5770505D4002CEA
:1039E00003D0944224D09C4222D00F9A102A2BD08C
:1039F0000F9A102A30D00F9A022A35D01F2C02D8E5
:103A000030222A5501341F2C05D84A46002A31D0CD
:103A10002D222A55013403960293019400954346C2
:103A20006246FFF753FF05B0C0BCB946B046F0BDD3
:103A3000621E012C06D00F9F102F01D01400D4E776
:103A4000023CD2E71400D0E7B206D1D41F2CCFD865
:103A500078222A550134D1E7B206CCD51F2CCAD81A
:103A600058222A550134C9E71F2CC7D860322A557D
:103A70000134C3E7720703D52B222A550134CAE764
:103A80003207C8D520222A550134C4E7F0B5DE46F6
:103A900057464E464546E0B593B081468A46089261
:103AA00009931CAB10CB1B789B461E9D219B98460F
:103AB000002C03D1102342469A4390468023DB001A
:103AC00046461E4042461A4212D0002C22D0002602
:103AD0000EE03031CBB2771C0AAA935529002000A2
:103AE00000F0ECFFAC4216D31F2F14D83E000400A8
:103AF0002900200000F0E2FFC9B20929E9D94346B4
:103B00009B0605D541235B18DBB20A3BDBB2E2E73B
:103B10006123F8E7270043460693209B05931F9BEC
:103B2000049303955B46029301970AAB0093099BAC
:103B3000089A51464846FFF720FF13B0F0BCBB4639
:103B4000B246A946A046F0BDF0B5DE4657464E4601
:103B50004546E0B595B0089009910A920B931E9ED8
:103B60001F9C20AB1B789B46229B9946239D269B3E
:103B70009A463300234303D1103352469A43924668
:103B80008023DB0057461F4052461A4219D03300AB
:103B900023432DD0002714E03032D3B27A1C904654
:103BA0000CAAD3554A462B003000210000F0C8FF74
:103BB000A5421FD819D043461F2B1BD847460600E5
:103BC0000C004A462B003000210000F0B9FFD2B2B1
:103BD000092AE1D953469B0605D541239B18DBB240
:103BE0000A3BDBB2DAE76123F8E7B145E3D901E04C
:103BF0000023984653460693259B0593249B0493E4
:103C00004B4603935B460293434601930CAB0093F0
:103C10000B9B0A9A09990898FFF7AFFE15B0F0BC04
:103C2000BB46B246A946A046F0BD0000F0B5DE4650
:103C300057464E464546E0B591B083468A460C92BB
:103C400098461A9C08941B9D099522002B00200081
:103C5000290001F010FA002800D0E5E001225242CC
:103C6000D74B2000290001F001FA002800D0DBE04A
:103C700001225242D34B2000290001F0E1F9002833
:103C800000D0D1E000220023089E3000099D2900C9
:103C900001F0D6F9002800D0DDE0089A099B0692D1
:103CA00007938023DB001E9A1A400D921E9A1A4237
:103CB00001D106231C930698079904000D000A0001
:103CC0000600024300D1D1E0080D4005400DBE4C76
:103CD000A44660440A03120BBC4B13431F0001F0BF
:103CE000DDF9BB4ABB4B01F068F9BB4ABB4B01F0A5
:103CF0003DF904000D000022B94B3000390001F0FD
:103D00002CF9B84AB84B01F058F902000B0020001A
:103D1000290001F02BF901F0D9F9814601F0BEF933
:103D200004000D00B14AB24B01F047F90022B14B3B
:103D300001F01CF901F0CAF90600AF4AAF4B2000B0
:103D4000290001F03AF904000D00300001F0A6F955
:103D5000AB4AAC4B01F031F902000B002000290006
:103D600001F0FBF804000D0002000B0001F025F942
:103D70000A900B91A44BF31800261F0522002B007C
:103D80002000290001F0F2F80E900F9122002B0084
:103D900000208021C90501F0E0F804000D00002298
:103DA0009A4B0A980B9901F0EAF80022984B01F01F
:103DB000DDF802000B000A980B9901F0E0F80022F0
:103DC000944B01F0D3F802000B000A980B9901F014
:103DD000D6F802000B002000290001F0C7F802000D
:103DE0000B000E980F9901F0CAF80022774B01F0F2
:103DF000BDF832003B0001F0E0F806000F000400BF
:103E00000D00069A079B01F031F9002830D00123FC
:103E10005B429C46E14400227D4B3000390001F0BA
:103E2000AEF804000D0023E01E9B04931D9B03933A
:103E30001C9B0293089A099B0092019343460C9A9B
:103E40005146584600F0FCF811B0F0BCBB46B246F3
:103E5000A946A046F0BD00230024069307940696C9
:103E600080231B069C46654407951AE70023994664
:103E70004B466333C62B1ED804261E9B1B0526D536
:103E80002B0023430FD0644A644B0698079901F036
:103E9000E5F8002879D00022614B0698079901F0D7
:103EA000CFF8002871D01C9B4B4506DD4A469B1A73
:103EB000013B1C9303E00526DFE700231C938023CE
:103EC000DB001E9A1A431E920026002399461D9B72
:103ED0009E4264D29F1B02231E9A1A400A921E9A87
:103EE000134202D0002E00D000274B46002B07D0F3
:103EF00022002B000698079901F041F806900791DF
:103F0000002200230898099901F09AF8002848D166
:103F1000444B1E9A1340049303971C9B0293069BE9
:103F2000079C0093019443460C9A5146584600F072
:103F300087F8002E00D187E71E9B9B063DD54525BF
:103F4000441C4346020051462800D8474A46D3172E
:103F5000D2185A4005230593013E0496002303938B
:103F60000A3302934B46DB0F019300924346220033
:103F700051465846FFF78AFD0A9B002B00D163E7A4
:103F800002005F460C9E1D9D54E01C9B002B9ED0A2
:103F90000D9B002B9BD01C9B013B1C9397E700279C
:103FA00099E7069C079D2200290080200006844690
:103FB00061440B0006920793AAE76525C0E7C04657
:103FC000FFFFEF7FFFFFEFFF01FCFFFF0000F03F6F
:103FD000FB799F501344D33FB3C8608B288AC63FF8
:103FE0000000F83F61436F63A787D23F71A379094F
:103FF0004F930A400000E03F1655B5BBB16B02403D
:10400000EF39FAFE422EE63FFF03000000002C408D
:1040100000002440000018402D431CEBE2361A3FFC
:1040200080842E41FFF7FFFF541C43465146202059
:10403000B8472200931BAB42F6D3100004E7C046FA
:10404000F0B5DE4657464E464546E0B595B006907B
:10405000079193469946209F1E9A1F9B10001900B6
:1040600001F009F8002831D101225242BF4B1E98BD
:104070001F9900F0E5FF002837D101225242BC4BC6
:104080001E981F9900F0F2FF00283DD10022B94B85
:104090001E981F9900F0EAFF002850D10022B64B6D
:1040A0001E981F9900F0CCFF002848D10022002361
:1040B0001E981F9900F0C4FF002850D10023984695
:1040C000229B5B0500D4B6E0002458E0229B0393BA
:1040D000219B029303230193A84B00934B465A461E
:1040E00007990698FFF7F2FB0EE1229B0393219BB1
:1040F000029304230193A24B00934B465A4607991F
:104100000698FFF7E3FBFFE00423229A1A40229966
:104110000B4210D09B4B002A0FD00422229903910E
:1041200021990291019200934B465A4607990698AD
:10413000FFF7CCFBE8E0944BEDE70322EEE7229B90
:104140000493219B039302971E9B1F9C0093019451
:104150004B465A4607990698FFF768FDD4E01E9A29
:104160001F9B0020002100F0F8FE1E901F910123EC
:104170009846A5E70CAB30221A55013F01341F2C9D
:1041800001D8092FF6D81E981F9900F09FFF05004F
:1041900000F084FF02000B001E981F9900F0DDFE66
:1041A0007A4BFA009B181A685B680A920B9300F02E
:1041B00004FF0890099100F0ADFF060000F06AFFCF
:1041C00002000B000898099900F0C7FE08900991B9
:1041D00000226F4B00F04AFF00282ED0013630003D
:1041E00000F058FF02000B000A980B9900F02EFF18
:1041F000002801D001350026002F2CD1280000F026
:104200004DFF02000B001E981F9900F0A6FE06004D
:104210000F0000225E4B00F013FF002846D1002261
:104220005B4B3000390000F021FF00283ED1EB0746
:104230003CD501353AE0062746E70022544B089862
:10424000099900F0FDFE0028D6D1002E01D0F30719
:10425000D2D50136D0E7AA461F2C11D8013F0A213A
:10426000300000F02BFC651C30310CAB19550A21D5
:10427000300000F023FC092E0ED906002C00EBE7DD
:1042800055461F2C0CD87B1E002F09D00CAA3021BC
:1042900011551F000134F4E72B0055461C00F0E7D0
:1042A0001F2C03D80CAB2E221A5501341F2C10D80A
:1042B0000A21280000F0DAFB661C30310CAB1955DE
:1042C0000A21280000F0D2FB051E01D03400EDE7E2
:1042D00034000323229A1340012B1CD01F2C06D834
:1042E0004346002B32D00CAB2D221A550134229BB1
:1042F0000393219B029301940CAB00934B465A46C7
:1043000007990698FFF7E2FA15B0F0BCBB46B24633
:10431000A946A046F0BD219B002B13D04346002B9D
:1043200002D10C3313420FD0219B013B2193190082
:1043300003E00CAB30221A5501348C42CED21F2C34
:10434000F7D9CBE72199F8E72199F6E7229B5B079C
:1043500004D50CAB2B221A550134C8E7229B1B074E
:10436000C5D50CAB20221A550134C0E7FFFFEFFF83
:10437000FFFFEF7F65CDCD4165CDCDC10CC90010EC
:1043800010C9001000C9001008C90010B8CA0010F8
:104390000000E03FF0B5DE4657464E464546E0B5E4
:1043A00093B082468B4690461193002900D100E3DA
:1043B00000275446119B1878002800D1FCE22528DC
:1043C00009D07D1C43463A005946A047119B013352
:1043D00011932F00EEE7013311930025119A117804
:1043E0000B00203BD8B2102803D88300C248C35822
:1043F0009F460B00303BDBB2092B2CD92A292FD04A
:1044000000230A93119B1A782E2A39D0002399464B
:10441000119A1378683BD9B2122976D88B00B74924
:10442000CB589F4601231D4301321192D6E7022348
:104430001D4301321192D1E704231D430132119231
:10444000CCE708231D4301321192C7E710231D4317
:1044500001321192C2E711A8FFF726FA0A90D1E7BC
:104460001C9B1A1D1C921B68002B04DB0A93119BDA
:1044700001331193C6E7022215435B420A93F6E724
:104480008022D20015435A1C11925A781300303BF7
:10449000DBB2092B04D92A2A07D000239946B7E7B3
:1044A00011A8FFF701FA8146B2E71C9B1A1D1C9266
:1044B0001B68002B04DB9946119B01331193A7E77E
:1044C0000023F8E780235B002B43511C11915278A5
:1044D0006C2A01D01D0018E0C0239B001D43013150
:1044E000119112E080232B43511C11915278682ABC
:1044F00001D01D0009E0C0231D430131119104E0EA
:1045000080235B001D4301321192119B18786728AC
:1045100016D8252826D30300253BDAB2422A21D813
:104520009300774AD3589F4680239B001D43013256
:104530001192EAE780235B001D4301321192E4E708
:1045400078280FD869280DD30200693AD2B2012326
:1045500093406C4A13420FD11A0600D503E25B0563
:1045600000D594E17D1C43463A005946A047119B73
:10457000013311932F001DE7782809D0622838D025
:104580006F2838D0582838D010239D430A2600E0E1
:104590001026582833D0692803D0642801D00C2273
:1045A00095436A0501D50122954369282AD06428DC
:1045B00028D0AA0500D5A7E0EA0500D5C0E06A0624
:1045C00000D4D2E01C9A111D1C911168FF220A40F0
:1045D00005950A9B04934B4603930296002301938F
:1045E000009243463A0059462000FFF74FFA070071
:1045F00027E00226CDE70826CBE71026C9E72022D0
:104600001543C8E7AA0520D4EA0550D46A0666D542
:104610001C9A111D1C911168FF220A40D017111815
:10462000414005950A9B04934B4603930296D20F93
:104630000192009143463A0059462000FFF726FABE
:104640000700119B01331193B4E61C9A073207212E
:104650008A43110008311C91116853689C46DB178E
:104660000C930D930C9A0D9B100048400E906246DF
:1046700053400F930E980F990C9A0D9B801A9941F5
:104680000E900F9108950A9B07934B46069304964C
:10469000002305936346DA0F02920090019143468E
:1046A0003A0059462000FFF74FFA0700C9E71C9A65
:1046B000111D1C911268D0171118414005950A9BD5
:1046C00004934B4603930296D20F01920091434606
:1046D0003A0059462000FFF7D9F90700B1E72A064A
:1046E00005D51C9A111D1C910023D25E96E71C9AD9
:1046F000111D1C91126891E718C900105CC90010C7
:10470000A8C90010419000001C9A073207218A4373
:10471000110008311C9108950A9B07934B4606939C
:104720000496002305930293536812680092019344
:1047300043463A0059462000FFF706FA070080E793
:104740001C9A111D1C9105950A9B04934B460393DB
:104750000296002301931368009343463A0059469A
:104760002000FFF793F907006BE72A0606D51C9A8D
:10477000111D1C9112681204120C29E71C9A111DBC
:104780001C91126824E746281AD01C9B0733072285
:1047900093431A0008321C9204950A9A03924A46DF
:1047A00002921A685B680092019343463A005946A8
:1047B0002000FFF745FC0700119B01331193F9E539
:1047C00020231D43E1E7672801D0472802D1802339
:1047D0001B011D43452801D0472801D120231D433B
:1047E0001C9B0733072293431A0008321C9204953E
:1047F0000A9A03924A4602921A685B6800920193F1
:1048000043463A0059462000FFF710FA0700119B73
:1048100001331193CEE502231A002A4092462B421F
:104820001FD001251C9B1A1D1C927A1C91461878DA
:1048300043463A005946A0475346002B16D1119BD8
:10484000013311934F46B5E5561C43465946202087
:10485000B8472B0032005D1C9C42F5D83C00170085
:10486000E0E701233A0027000A9CF4E74A46A14604
:104870000A9C06E0571C434659462020C84735008D
:104880003A006E1CAC42F5D84C469146D7E71C9BCB
:104890001A1D1C921E684B46002B00D1013B3100B3
:1048A00001E0013113000A78002A02D05A1E002BC1
:1048B000F7D1891B10918023DB002A001A40924611
:1048C0001D4203D0494501D94B46109302231A00DB
:1048D0002A400B922B4205D03A00574623004C4603
:1048E000994620E03A00109B5F46B346260006E05A
:1048F000541C434639002020B0472B0022005D1C89
:104900000A999942F4D834005E46BB461095574642
:1049100023004C46994606E01C000136551C4346D0
:104920005946C8472A003078002804D0002FF4D018
:10493000631E002CF0D117004C460B9B002B03D1BB
:10494000119B0133119335E50A9F109B06E0561C1D
:10495000434659462020A0472B0032005D1C9F4251
:10496000F5D81700ECE721232B431C9A111D1C914D
:1049700012680593082304934B4603931023029374
:1049800000230193009243463A0059462000FFF766
:104990007DF80700119B013311930BE57D1C434605
:1049A0003A0059462520A047119B013311932F004F
:1049B00000E50B4B9A46FBE4A246474502D343462B
:1049C0005A1E00E03A00434659460020D0473800BE
:1049D00013B0F0BCBB46B246A946A046F0BDC046E7
:1049E0009938001000B585B0029003910121044868
:1049F000009313004A4202A9FFF7CCFC05B000BDAA
:104A00009B38001001480421014B18477013002007
:104A1000354A001010B5010018231B881422108895
:104A2000984710BD10B5010018231B881622108866
:104A3000984710BDF0B5C64600B507000E0000252A
:104A40000123984600E00135B5420AD2AC003C197A
:104A50002068FFF7DFFF20600028F4D1002398468C
:104A6000F1E7404680BCB846F0BD0000124A936FA3
:104A70009B0815D29066D166002905D0FFE7FFE7B5
:104A8000FFE7516F106F704704B580210906C21708
:104A90005140002800D0C84306F05AF9002104BD57
:104AA000F0B5146E556E576F166FFFF7E3FF14667F
:104AB000556657671667F0BD000000D0114A936F26
:104AC0009B0813D210665166002905D0FFE7FFE767
:104AD000FFE7516F106F704704B5002801D0002028
:104AE000C04306F035F9002104BDC046F0B5146E90
:104AF000556E576F166FFFF7E5FF146655665767DB
:104B00001667F0BD000000D094464E4A926F92089E
:104B1000624601D230E0C046F0B54A4EB56F6D082E
:104B2000FCD3346E756E776F366F00F025F89446BF
:104B3000444A14665566576716676246F0BDC0461C
:104B40009446404A926F9208624601D258E0C046AD
:104B5000F0B53C4EB56F6D08FCD3346E756E776F53
:104B6000366F00F04DF89446364A1466556657671E
:104B700016676246F0BDC046002B24DB11D0002929
:104B80003EDA00B5C943404200D1013100F038F8A7
:104B9000C943404200D10131DB43524200D10133CD
:104BA00000BD002AEBD1002801D1002905D000204A
:104BB000C90FC90701D1C043410800B506F0C0F8CC
:104BC0000022002300BD00B500290ADBDB4352426E
:104BD00000D1013300F014F8C943404200D1013143
:104BE00000BDC943404200D10131DB43524200D1F4
:104BF000013300F005F8DB43524200D1013300BD20
:104C0000002923D1002B18D1002A0CD0BC460D4F0F
:104C100038667A6600210023FFE7FFE7FFE77A6F37
:104C2000386F67467047002801D00748010000B57B
:104C300006F086F80022002300BD02000B000020D1
:104C400000217047000000D0FFFFFFFF002B00D0C5
:104C5000BFE0130C28D1002AE7D080B4114F396689
:104C60007A66FFE7FFE730B4040C7B6F396F1B04F3
:104C700023433B667A66FFE7FFE7FFE7C04684B25F
:104C80007B6F3D6F1B0423433B667A66FFE7FFE7BC
:104C9000C04600232C042D0C7A6F386F001969412F
:104CA000B0BC7047000000D0F0B594460025140E4B
:104CB00001D112020835140F01D112010435940FED
:104CC00001D192000235D40F01D152000135D40B2D
:104CD0000134254F7C66254C3C660E0C93B2FFE7F1
:104CE000FFE7FFE73C6F6643360C7703BE4673432E
:104CF000DF0B5B04C01AB941130C7343DB18C91AEC
:104D0000CE086643360CB64493B273431F0F1B01A3
:104D1000C01AB941130C73431F0B1B05C01AB941CC
:104D2000860D8F023E436643360C092D24DB520A62
:104D30007243801A7703460A6643360C16235B1BC0
:104D4000DE40DF40BF1964466643821B704604356F
:104D500006330100D940A840C01900D30131A24256
:104D600006D20023F0BD0000000000D0FFFFFFFFCF
:104D7000121B0130F3D3F1E709277F1BFE40644685
:104D8000A2B27243801A00D20139220C7243130C72
:104D90001204821A99410B00704604351337010042
:104DA000F940A840801900D30131002B02D1A24262
:104DB0000AD2F0BD013000D30131121BFAD2013BFF
:104DC000F8D1A24200D2F0BD013000D30131121B54
:104DD000F7E7F0B51C0C00D080E00CB400251C0AED
:104DE00004D11B02160E3343120208351C0B04D1EA
:104DF0001B01160F3343120104359C0B04D19B0099
:104E0000960F334392000235DC0B02D192185B41BE
:104E100001351C00971864410134464F7C66464CAE
:104E20003C660E0CFFE7FFE7FFE7C0463C6F6643BA
:104E3000360C7703BE4697B27743C01B00D20139C8
:104E4000C01B00D201399FB27743C91BC91B170C85
:104E500077437E04FF0B801BB941CE086643360CB6
:104E60000C2D33DBB644120B1F053A431B0B97B2D4
:104E70007743C01B00D201399FB27743C91B170C7F
:104E800077433E043F0C801BB941860D8F023E43A1
:104E9000664329277F1BFE400C3D7746AF40BF1974
:104EA00030BCA2B2ABB272437343801A9941220C58
:104EB0007243130C1204801A994102000B0001374F
:104EC000001BA941F9D2781E0021F0BD0C277F1BE1
:104ED000FE4077467F0BAF40FF19E0E700245D1CE2
:104EE00007D0144F7D663966FFE7FFE7FFE7FFE76E
:104EF0003C6F95B29EB265436643401BB141150CB1
:104F00001E0C6543664336042F0C3E432D04401BA4
:104F1000B141994204D202000B0020000021F0BDF3
:104F200001D19042F7D3801A994101349942F2D3CA
:104F3000F6E70000000000D0FFFFFFFF44464D46AB
:104F400056465F46F0B47047F0BCA046A946B2464C
:104F5000BB46704748404140484018B41B4B5B6813
:104F6000FC46019308BD04DF4355001018B4174BED
:104F70001B68FC46019308BD00DF4D5500109446A8
:104F8000134A926F920809D2624618B40F4BDB683D
:104F9000FC46019308BD0CDF055800100C4AF0B523
:104FA000146E556E576F166F6246FFF7EEFF084A94
:104FB0001466556657671667F0BD18B4034B9B68B7
:104FC000FC46019308BD08DFA9560010D027002039
:104FD000000000D0FFB550404240504059404B4087
:104FE000594000E0FFB5154F4C00640D03D0BC42A2
:104FF00004D10C0314D80020090D09055C00640DD0
:1050000003D0BC4204D11C030AD800221B0D1B058F
:1050100001264B4009D44B4003D58B4200D182423C
:10502000FFBD9942FCD19042FFBD0B43DB18034307
:105030001343F5D0C9434918FFBD0000FF07000026
:1050400000B5FFF7CFFF804100BDC04600B5FFF7B8
:10505000C9FF01D9002000BD012000BD00B5FFF748
:10506000B9FF01D9002000BD012000BD00B5FFF748
:10507000B1FF804100BD012040054A00121804D84C
:105080005A00121801D800207047012070470020F4
:10509000704700000021002805D17047C117484023
:1050A000401AFAD0C90713B5064B1B6898470CBCC9
:1050B000441CA2401005120B0349091B09051943A2
:1050C000114310BDD02800201F04000010B54C0073
:1050D000620D8023D218DB00D21A5B057E2A10DD18
:1050E0009E3A13DACC170903490819435242D140BA
:1050F000640001341532202A05DAD04008436043A9
:1051000010BD002010BD0846604310BDC80FC01878
:10511000013810BD18B4044B5B6AFC46019308BD0E
:1051200024DF395A00100000D027002018B4044BA7
:105130001B6EFC46019308BD60DFEB5A00100000B7
:10514000D0270020024A034B00B500F0D5F900BD7E
:10515000182D4454FB2119408A0002D3920D092ACC
:1051600008DA18B4064B1B6CFC46019308BD40DFFF
:105170001F5C001000B5FFF7E5FF04BC9646F0E7A2
:10518000D027002070B513231C78012C14D0012CDB
:1051900014DC022C02DC1F4B1F4A93641F48FFF7EC
:1051A00039FC1F4B186070BD1A491B4A980081508A
:1051B00001331F2BF8D9EAE70023FAE71948FFF774
:1051C00031FC05001848FFF72DFC023803789B00DE
:1051D0007F2B19DD10488022290001F02FF8022CC6
:1051E000D7D1124B1A88B5231B029A4209D1104B12
:1051F0001A88104B9A4204D10F4B1A880F4B9A42CF
:10520000C7D00020FEF702F90D4B0E4A0E4832219E
:10521000FEF762F809550010D02700204C3300003B
:10522000D0280020534400005346000054380000AA
:10523000D8380000494600009C380000594600005C
:1052400008CB0010B0CB001068CB0010F0B5DE46E4
:1052500057464E464546E0B585B004000D00009225
:1052600001930E9B9A46002B44DD019B19110120EE
:105270004042FFF723FC039000239B4628E00C23C9
:105280009946AB11039A53431D224946521A1341C2
:1052900001335B1098464B46203B21D422009A40B4
:1052A000170023004A4693401E004346D917009A30
:1052B000019B404600F034FE34003D00241A8D412D
:1052C0005B464A46934043449B4653469B1A9A4644
:1052D0005346002B11DD53460C2BD0DCD146D0E7D2
:1052E00020235B1A2200DA4013002A008A401700AC
:1052F0001F43D6E700230393BEE7009A019BAB420E
:1053000009DC01D1A24206D8009A019BA41A9D4152
:1053100001239C46E344009A019BAB4209DC01D186
:10532000A24206D8009A019BA41A9D4101239C46E3
:10533000E344002D0FDB002D16DB0F9B002B01D06B
:105340005A461A602000290005B0F0BCBB46B246A0
:10535000A946A046F0BD009A019BA4185D41012317
:105360005B429C46E344E6E7009A019BA4185D413A
:1053700001235B429C46E344DFE70000F0B5C646EC
:1053800000B58AB007900F0011001A00FE0F3B0D08
:105390005B055B0D3D032D0B8024640304902543C6
:1053A0000595D50FA846150D6D056D0D1203120B51
:1053B000029114430394109A002A02D000221099FB
:1053C0000A604A4A934200D17EE0002D00D17EE07F
:1053D000002B00D183E0954200D183E06A1E9A42FF
:1053E00000DD81E045D0002E06D0049E059F0022FE
:1053F0007142BA410491059209AA01925B1B009384
:10540000029A039B04980599FFF720FF06000F00FE
:1054100003000C009B197C412200029803998C42E6
:105420000BDC01D1834208D802998B420CD1039B3B
:105430009A4209D1099BDB0706D5029B039CF61A09
:10544000A741099B013309934346002B02D0099BD6
:105450005B420993109B002B02D0099B109A1360AA
:10546000234A521B30003900FFF760FE06000F0090
:105470002FE0039B059999420FDD002E17D1029C66
:10548000039D24196D4104980599001BA94106004C
:105490000F00012309931500D6E7029B039C059892
:1054A000A04202D104999942E7D8079E11E0029EDA
:1054B000039FB6197F41049B059CF61AA74101235F
:1054C0005B4209931500BFE700260A4F01E0002662
:1054D000084F300039000AB080BCB846F0BD002645
:1054E0000027F6E7079EF4E7079EF2E7FF070000B4
:1054F000330400000000F07F10B582B00024009457
:10550000FFF73CFF02B010BD07B56046002800D190
:1055100000BE01880A0A0230DF2AFAD1C9B2820825
:1055200004D3028840880004104300E00068024A67
:105530005050039007BD0000D02700200FB403BCDB
:105540000CBCF0B50124E407634000E0F0B50C0D9D
:10555000CF0F661E3605891B640503D3C94340423D
:1055600000D30131640D03D0661CF60A07D0E41B9A
:1055700000207F00791C89078912803C24031D0DBF
:10558000DF0F6E1E36059B1B6D0503D3DB435242B6
:1055900000D301336D0D03D06E1CF60A07D0ED1B4E
:1055A00000227F007B1C9B079B12803D2D032F1B3D
:1055B000661B58D4A446202E46DA20371400BC407F
:1055C0001D00BD40F24033412A4380185941CB0FA2
:1055D00005D0C943C0430022644250415141624654
:1055E0004D0D28D10D0D07D100281FD024194041A1
:1055F0004941013A0D0DF9D0640006D3013000D3C2
:105600000131002C01D140084000013A0BD4941C18
:10561000E40A04D112051144DB071944F0BDD9078F
:10562000204B194300E0D9070020F0BD0029DDD14F
:10563000002CDBD1F0BD0132C6074008CD0728435E
:105640004908002EE1D0D9E73C2E29DA203E403728
:105650001400BC4000D00124F24014431A00BB40A7
:105660001C43D317ACE7AC46202F08DA20360400E1
:10567000B4400D00B540F84039412843A5E73C2F20
:105680000CDA203F40360400B44000D00124F8403A
:1056900004430800B1400C43C117EAE710001900A9
:1056A000002494E70000F07FF0B50C0D661E36056F
:1056B000891BE60A6405640D02D0651CED0A04D05E
:1056C000002001210905803C2403A4461C0D671E0F
:1056D0003F05DB1BE70A6405640D02D0651CED0A7B
:1056E00004D0002201231B05803C2403774064443E
:1056F00097B484B296B27443070C7E43150C6F4383
:1057000080B26843361802D3012000043F183004E9
:10571000350C00197D41844688B29AB250430C0C76
:1057200062431F0C7C438EB27E43921902D3012642
:105730003604A4191604170C3618674101BC81B24F
:105740009AB25143040C62431B0C5C4380B2584331
:10575000121802D30120000424181004130C40185E
:1057600063412D185E410020474106BC88B293B2C8
:1057700058430C0C6343120C544389B251435B18D9
:1057800002D301210904641819041A0C0918624192
:105790006D1856410020474118BCF902720D1143A3
:1057A000F0026A0D1043ED020A0D03D16D1940415C
:1057B0004941013B124E9B1B7600B3420ED26D0055
:1057C00007D30130002671416646354301D14008B8
:1057D00040001B05C918E4072144F0BD0BDA013372
:1057E00006D1013004D101314F0D01D04908F2E753
:1057F000E1070020F0BD013631050020EBE7000095
:10580000FF030000F0B51C0D671E3F05DB1BE70A18
:105810006405640D02D0661CF60A04D00022012340
:105820001B05803C2403D0252D060026F6432E665A
:105830001E096E66CE0FF619B44649004F0D02D010
:105840007E1CF60A03D000200021403F3F033E1B90
:10585000B600B444013F7F05C91B49082E6F0136CD
:1058600076089C02950D25437543ED137543AD13E2
:1058700001356D10F603761B0CB4CC02450D2C439C
:10588000A2B2B3B25A43270C7B43350C6F43A4B288
:105890006C431B1902D3012424043F191C041D0C62
:1058A000A4187D4124196D41009A91B2ACB26143B4
:1058B000170C7C432B0C5F4392B25A43A41802D3BB
:1058C00001221204BF182204230C52187B41019CB0
:1058D0006C431B19520ED9010A434401A01A81B22C
:1058E000B2B2514303145A43360C734387B2774321
:1058F000D617D21900277E4136049B191704160CBF
:105900007F185E417316ED18F30100268033754150
:10591000A90F06D16400690AE8055B0A184309D299
:105920002FE00422944480337541A90AA8059B0AFC
:10593000184326D3404149412404009A019B0D009D
:105940005543641B4343E41A95B286B27543170C62
:105950007E43030C5F4392B25A43B61802D301222E
:105960001204BF183204330C52197B4152429C413D
:10597000002C02D40022013051414008CA071043D4
:10598000490802B06246D7079210084BD218084B5C
:105990009A4203D212058918C919F0BD0020002AC5
:1059A00001DC3900F0BD01331905F5E7FD03000006
:1059B000FE070000624618CA94465A46002A20DBB9
:1059C00004E0624618CA944600291ADAC0186141F8
:1059D0005B463B415C46B4405246FA402243444653
:1059E0004D4662416B41904699462B46B3403D413E
:1059F000FC401C4352465B46A241AB4192469B464B
:105A00007047C01AA1414B463B414C46B440424608
:105A1000FA40224354465D4662416B4192469B46A2
:105A20002B46B3403D41FC401C4342464B46A241FD
:105A3000AB41904699467047002200B5203200F0F5
:105A400010F8080000BD002200B500F00CF8CA17DD
:105A50009A4200D100BDD8430121C907414000BD91
:105A600000220B150AD410B5944600F079F81414EE
:105A7000013400DA0021CB17144C2047002000210C
:105A800070476244343A0CD40C2A07DA040091407F
:105A9000904052422032D440214310BDD843D943D4
:105AA00010BD203207D40C4694405242203211419E
:105AB000D040204310BD0800C917203203D4524201
:105AC0002032104110BD1800190010BD835A00107B
:105AD00000210A00002104E000210A00C11704E0AF
